{
  "_format": "hh-sol-artifact-1",
  "contractName": "SimpleLending",
  "sourceName": "contracts/SimpleLending.sol",
  "abi": [
    {
      "inputs": [
        {
          "internalType": "address",
          "name": "_usdtAddress",
          "type": "address"
        }
      ],
      "stateMutability": "nonpayable",
      "type": "constructor"
    },
    {
      "anonymous": false,
      "inputs": [
        {
          "indexed": false,
          "internalType": "address",
          "name": "borrower",
          "type": "address"
        },
        {
          "indexed": false,
          "internalType": "uint256",
          "name": "amount",
          "type": "uint256"
        }
      ],
      "name": "Borrowed",
      "type": "event"
    },
    {
      "anonymous": false,
      "inputs": [
        {
          "indexed": false,
          "internalType": "address",
          "name": "borrower",
          "type": "address"
        },
        {
          "indexed": false,
          "internalType": "uint256",
          "name": "amount",
          "type": "uint256"
        }
      ],
      "name": "Repaid",
      "type": "event"
    },
    {
      "inputs": [
        {
          "internalType": "address",
          "name": "",
          "type": "address"
        }
      ],
      "name": "balances",
      "outputs": [
        {
          "internalType": "uint256",
          "name": "",
          "type": "uint256"
        }
      ],
      "stateMutability": "view",
      "type": "function"
    },
    {
      "inputs": [
        {
          "internalType": "uint256",
          "name": "amount",
          "type": "uint256"
        }
      ],
      "name": "borrow",
      "outputs": [],
      "stateMutability": "nonpayable",
      "type": "function"
    },
    {
      "inputs": [],
      "name": "owner",
      "outputs": [
        {
          "internalType": "address",
          "name": "",
          "type": "address"
        }
      ],
      "stateMutability": "view",
      "type": "function"
    },
    {
      "inputs": [],
      "name": "repay",
      "outputs": [],
      "stateMutability": "nonpayable",
      "type": "function"
    },
    {
      "inputs": [],
      "name": "usdt",
      "outputs": [
        {
          "internalType": "contract IERC20",
          "name": "",
          "type": "address"
        }
      ],
      "stateMutability": "view",
      "type": "function"
    }
  ],
  "bytecode": "0x608060405234801561001057600080fd5b50604051610b6d380380610b6d8339818101604052810190610032919061011c565b806000806101000a81548173ffffffffffffffffffffffffffffffffffffffff021916908373ffffffffffffffffffffffffffffffffffffffff16021790555033600160006101000a81548173ffffffffffffffffffffffffffffffffffffffff021916908373ffffffffffffffffffffffffffffffffffffffff16021790555050610149565b600080fd5b600073ffffffffffffffffffffffffffffffffffffffff82169050919050565b60006100e9826100be565b9050919050565b6100f9816100de565b811461010457600080fd5b50565b600081519050610116816100f0565b92915050565b600060208284031215610132576101316100b9565b5b600061014084828501610107565b91505092915050565b610a15806101586000396000f3fe608060405234801561001057600080fd5b50600436106100575760003560e01c806327e235e31461005c5780632f48ab7d1461008c578063402d8883146100aa5780638da5cb5b146100b4578063c5ebeaec146100d2575b600080fd5b6100766004803603810190610071919061058c565b6100ee565b60405161008391906105d2565b60405180910390f35b610094610106565b6040516100a1919061064c565b60405180910390f35b6100b261012a565b005b6100bc6102d3565b6040516100c99190610676565b60405180910390f35b6100ec60048036038101906100e791906106bd565b6102f9565b005b60026020528060005260406000206000915090505481565b60008054906101000a900473ffffffffffffffffffffffffffffffffffffffff1681565b6000600260003373ffffffffffffffffffffffffffffffffffffffff1673ffffffffffffffffffffffffffffffffffffffff168152602001908152602001600020549050600081116101b1576040517f08c379a00000000000000000000000000000000000000000000000000000000081526004016101a890610747565b60405180910390fd5b60008054906101000a900473ffffffffffffffffffffffffffffffffffffffff1673ffffffffffffffffffffffffffffffffffffffff166323b872dd3330846040518463ffffffff1660e01b815260040161020e93929190610767565b6020604051808303816000875af115801561022d573d6000803e3d6000fd5b505050506040513d601f19601f8201168201806040525081019061025191906107d6565b506000600260003373ffffffffffffffffffffffffffffffffffffffff1673ffffffffffffffffffffffffffffffffffffffff168152602001908152602001600020819055507f0516911bcc3a0a7412a44601057c0a0a1ec628bde049a84284bc42886653448833826040516102c8929190610803565b60405180910390a150565b600160009054906101000a900473ffffffffffffffffffffffffffffffffffffffff1681565b8060008054906101000a900473ffffffffffffffffffffffffffffffffffffffff1673ffffffffffffffffffffffffffffffffffffffff166370a08231306040518263ffffffff1660e01b81526004016103539190610676565b602060405180830381865afa158015610370573d6000803e3d6000fd5b505050506040513d601f19601f820116820180604052508101906103949190610841565b10156103d5576040517f08c379a00000000000000000000000000000000000000000000000000000000081526004016103cc906108ba565b60405180910390fd5b60008054906101000a900473ffffffffffffffffffffffffffffffffffffffff1673ffffffffffffffffffffffffffffffffffffffff1663a9059cbb33836040518363ffffffff1660e01b8152600401610430929190610803565b6020604051808303816000875af115801561044f573d6000803e3d6000fd5b505050506040513d601f19601f8201168201806040525081019061047391906107d6565b506064600a826104839190610909565b61048d919061097a565b8161049891906109ab565b600260003373ffffffffffffffffffffffffffffffffffffffff1673ffffffffffffffffffffffffffffffffffffffff16815260200190815260200160002060008282546104e691906109ab565b925050819055507fac59582e5396aca512fa873a2047e7f4c80f8f55d4a06cb34a78a0187f62719f338260405161051e929190610803565b60405180910390a150565b600080fd5b600073ffffffffffffffffffffffffffffffffffffffff82169050919050565b60006105598261052e565b9050919050565b6105698161054e565b811461057457600080fd5b50565b60008135905061058681610560565b92915050565b6000602082840312156105a2576105a1610529565b5b60006105b084828501610577565b91505092915050565b6000819050919050565b6105cc816105b9565b82525050565b60006020820190506105e760008301846105c3565b92915050565b6000819050919050565b600061061261060d6106088461052e565b6105ed565b61052e565b9050919050565b6000610624826105f7565b9050919050565b600061063682610619565b9050919050565b6106468161062b565b82525050565b6000602082019050610661600083018461063d565b92915050565b6106708161054e565b82525050565b600060208201905061068b6000830184610667565b92915050565b61069a816105b9565b81146106a557600080fd5b50565b6000813590506106b781610691565b92915050565b6000602082840312156106d3576106d2610529565b5b60006106e1848285016106a8565b91505092915050565b600082825260208201905092915050565b7f4e6f206465627420746f20726570617900000000000000000000000000000000600082015250565b60006107316010836106ea565b915061073c826106fb565b602082019050919050565b6000602082019050818103600083015261076081610724565b9050919050565b600060608201905061077c6000830186610667565b6107896020830185610667565b61079660408301846105c3565b949350505050565b60008115159050919050565b6107b38161079e565b81146107be57600080fd5b50565b6000815190506107d0816107aa565b92915050565b6000602082840312156107ec576107eb610529565b5b60006107fa848285016107c1565b91505092915050565b60006040820190506108186000830185610667565b61082560208301846105c3565b9392505050565b60008151905061083b81610691565b92915050565b60006020828403121561085757610856610529565b5b60006108658482850161082c565b91505092915050565b7f496e73756666696369656e742066756e647320696e20636f6e74726163740000600082015250565b60006108a4601e836106ea565b91506108af8261086e565b602082019050919050565b600060208201905081810360008301526108d381610897565b9050919050565b7f4e487b7100000000000000000000000000000000000000000000000000000000600052601160045260246000fd5b6000610914826105b9565b915061091f836105b9565b925082820261092d816105b9565b91508282048414831517610944576109436108da565b5b5092915050565b7f4e487b7100000000000000000000000000000000000000000000000000000000600052601260045260246000fd5b6000610985826105b9565b9150610990836105b9565b9250826109a05761099f61094b565b5b828204905092915050565b60006109b6826105b9565b91506109c1836105b9565b92508282019050808211156109d9576109d86108da565b5b9291505056fea2646970667358221220d3ac18fdca1b1b61331423d9ba3011c26284a92fa51cb3bb909dd94973515a5b64736f6c63430008140033",
  "linkReferences": {},
  "deployedLinkReferences": {}
}